:100000000C941E1F18951895189518951895189505
:100010001895189518951895189518951895189578
:100020001895189518951895189518951895189568
:100030001895189518951895189518951895189558
:100040000C94175918951895189518951895189592
:100050001895189518951895189518951895189538
:100060001895189518951895189518951895189528
:10007000040203050603020401010101010101015B
:100080000000000000000000000000000000000070
:100090000000000000000000000000000000000060
:1000A00007070707070707070A08090B0C09080ACB
:1000B0000201020102010201010201020102010228
:1000C0000201020102010201010201020102010218
:1000D0000201020102010201010201020102010208
:1000E00002010201020102010102010201020102F8
:1000F0000001020304050607FFFFFFFFFFFFFFFFEC
:1001000008090A0B0C0D0E0FFFFFFFFFFFFFFFFF9B
:100110001011121314151617FFFFFFFFFFFFFFFF4B
:1001200018191A1B1C1D1E1FFFFFFFFFFFFFFFFFFB
:100130002021222324252627FFFFFFFFFFFFFFFFAB
:1001400028292A2B2C2D2E2FFFFFFFFFFFFFFFFF5B
:100150003031323334353637FFFFFFFFFFFFFFFF0B
:1001600038393A3B3C3D3E3FFFFFFFFFFFFFFFFFBB
:100170000001010101010102020202020228000045
:1001800000000000300000000000002800002800EF
:1001900000000000300000000000280000000028DF
:1001A00000000000300000000028000000000000F7
:1001B00028000000300000002800000000000000BF
:1001C00000280000300000280000000000000000AF
:1001D0000000280430042800000000000000000097
:1001E0000000046A706A0400000000000030303033
:1001F000303030700070303030303030000000006F
:1002000000000469706904000000000000000000A4
:100210000000280430042800000000000000000056
:10022000002800003000002800000000000000004E
:100230002800000030000000280000000000002816
:10024000000000003000000000280000000028002E
:10025000000000003000000000002800002800001E
:10026000000000003000000000000028EF00000047
:10027000000000F0000000000000F10000EF0000AE
:10028000000000F00000000000F100000000EF009E
:10029000000000F000000000F1000000000000EF8E
:1002A000000000F0000000F100000000000000006D
:1002B000EF0000F00000F10000000000000000006E
:1002C00000EFDFF0E1F1000000000000000000009E
:1002D00000EEEFF0F1F2000000000000FFFFFFFF72
:1002E000FFFFFF000101010101010100000000000A
:1002F000000E0F10111200000000000000000000AE
:10030000000F1F102111000000000000000000007D
:100310000F00001000001100000000000000000F9E
:1003200000000010000000110000000000000F009D
:10033000000000100000000011000000000F00008D
:100340000000001000000000001100000F0000007D
:10035000000000100000000000001100010408105F
:1003600020400204081020400000000101010000AC
:100370000001010100000103030509120103030547
:1003800009120605040302010C0B0A090807000004
:10039000000102030000001020300014341F00137D
:1003A000334800062559001232660016267B0015D8
:1003B00035840011318900112196000062429600B7
:1003C0006444AB006454BC006252C1006353C60075
:1003D0006343C7006656C8007655C9007152CA000B
:1003E0006151CB006050CC00007655CC006343D9FE
:1003F000006454E6006545EB006242F80000765563
:10040000F8006343FD00624206016656070100766C
:1004100055070164441001645411016242120166DF
:1004200056170165451801006343180176551901F7
:1004300066561A010063431A0164441F01006444B4
:100440001F016343200160402101624222010076C6
:10045000552201000625220101222F011222380116
:100460001333410116264601113147010006254785
:100470000101225401153555010532620113336320
:10048000010013336301132364010013336401017A
:1004900022650100133369010034436D01001333F9
:1004A0006D010034446D010006256D010013336DAC
:1004B000010013336D010012326D0106257A01022D
:1004C000467F0101228C010012328C011424990113
:1004D00001229A0106259B010012329B011626A0DB
:1004E00001001626A4011232A5011434A601062526
:1004F000A701003343A701001232A7011626B0015D
:10050000001626B0011333B5011232B601001232C3
:10051000BE01001333C201000122C2010625D3012E
:100520001333D801000122D801000122DC010001AF
:1005300022DC010625DD01000122E101001626E191
:1005400001000516E101000516E101000516E101B3
:10055000001626E1011121E201003544E20100020A
:1005600011E201000211E601003141E601003141D2
:10057000E601000211E601006353E6017152F30146
:100580006454F4017655F501007152F5016454FA92
:10059000016353FB01006343FB017655FC01645486
:1005A000FD01004233FD016454FE01006656FE0168
:1005B000004231FE01007152FE0176550F02635375
:1005C0001002654515020076551502007152190298
:1005D00063431A0244351B027542200200765520FF
:1005E00002004433240200634328020063432C02C8
:1005F0000063432C020063433402665635020076E2
:10060000553502665636020073433602007566366B
:100610000200554336020063533A020072613A0207
:100620000061413A020064543A0266564302635341
:10063000440262424902006656490264544E020076
:1006400055345602645457026343580262425902B9
:100650000063435902006454590262525A02433201
:1006600063026444680200765568020076556C02A5
:100670000062526C020076556C0265456D020063A3
:10068000436D0265456E020076556E020076556E2A
:10069000020045346E020076556E020064446E021C
:1006A0000066566E0264546F026242700200665623
:1006B0007002007655700271527102007655710217
:1006C0000062527102645472024333730200715229
:1006D00077026656780200756678020066567802E0
:1006E0006454790262427E0264447F026343800262
:1006F00000665680026454810200645489020076C8
:1007000055890265458A020063438A020071528A54
:10071000020071528A0276558B020075668B0200C8
:1007200076558B020076558B020063438B02007571
:10073000668B020066568B020072368B0200635392
:100740008B020065558B0275319002007655900240
:1007500000625290020063439002006656900200CD
:10076000133390020541950211319602132397022B
:1007700000133397020013339702000122970200FF
:10078000153597021626980200162698020016269E
:1007900098020034439802003444980200133398BE
:1007A0000200122298020006259C020005169C02F7
:1007B0000002119C020005419C020532B102133374
:1007C000BA021222BB020122C002002544C8020064
:1007D0001333C8020532CD02002544CD0200153581
:1007E000CD020532CE02000625CE02003443D202ED
:1007F000000625D6020532DF02000625DF020013BF
:1008000023DF021333E402000333E4021222E50281
:10081000000122ED020113F202000113FA020001AD
:1008200022FA023443FB023444FC02000625FC0297
:10083000001333FC02000122FC02000122FC020032
:100840000122FC02000122FC02001333FC021232DE
:10085000FD02001333FD02000523FD02000625FD05
:1008600002000122FD0216260203062507030001ED
:10087000220B030001220F03062514030033431447
:10088000030012321C031626210300142421031630
:10089000262203123223030046352703001434278F
:1008A0000300465527030046552703000246270349
:1008B00000012227030006252F03012234033243BF
:1008C0003903000625390314343E030033443E0344
:1008D0000005233E0315353F030002463F03001485
:1008E000243F030001223F030016263F03000516A4
:1008F0003F030005163F030005163F030001223F9A
:10090000030001223F030016263F030014343F0377
:100910000001223F0300162643030016264303006E
:100920000516430300051643030012324703001265
:1009300032470300112147030016264703001626FD
:1009400047031131480300012248030013334803D1
:1009500000123248030016264803001434480306E8
:1009600025490300062551030006255103003243A3
:100970005103000122510300133351031626520381
:1009800001225303001626530300062553030016C5
:100990002653030013335703001626570300012282
:1009A0005703000122570300162657030005165768
:1009B00003000625570300062557030006255703A5
:1009C0000006255703000211570300445357030044
:1009D00031415703143458030011445803001424C0
:1009E00058030012325803000211580300143458FF
:1009F00003004233580376555903007152590300DE
:100A000042315903007152590300423359030042E5
:100A10003359030071525903006656590300665654
:100A2000590300634359030071525903007343593A
:100A3000030055435903006343590300332259030C
:100A400076555A030042335A030075665A03007103
:100A5000525A030060505A0363535F037655600394
:100A60007542610365456203523363030075426357
:100A700003765568037564710300443371030065A0
:100A8000457103634372030075317203754273034A
:100A90007655740300635374030044337403716325
:100AA0007503007564750300735575030063437522
:100AB00003005534750300665675036353760300CF
:100AC0007655760344347703006646770376557887
:100AD000036343790300634379030063537903009D
:100AE0007152790362527A030044337A03007152DF
:100AF0007A030033227A0363437B0373647C03002D
:100B000075317C0376559103006242950376559AC0
:100B10000343349B030076559B030043349B03003F
:100B200052439B030072459B030072369F03006390
:100B3000439F030066569F03007566A3030043406E
:100B4000A303006353A303006353AB03004351B3F8
:100B500003007655B703006454B703007261B7030E
:100B6000007531B7036343CC03006343D003624293
:100B7000D503007531D5036151D603007566DE03D8
:100B80006343E303006656E7037163EC03006656B4
:100B9000EC03006454EC036353ED036141EE030086
:100BA0007566F2036242F303007566F30300615158
:100BB000F303006151F303006151F3036242F40354
:100BC000006242F403006757F403006455F4030025
:100BD0006655F403007163F403007655F403624232
:100BE000F9036252FA03007655FA034332FB03001D
:100BF0004332FB037655FC03005243FC0300765559
:100C0000FC03624201040064440104004333010414
:100C10000064540104007245010400726301040081
:100C20007245010400753101040076550104007617
:100C3000550104007655010400665601040066560D
:100C4000010400765501040064540104006353015B
:100C50000400756601046343020400634302040058
:100C60006151060400756606040062520A04665665
:100C70000B040043330B040064540B040076550B43
:100C8000040076550B040071520B040062420B0401
:100C90000066560B040042330B040063530B040040
:100CA00075660B040063430B040062420B0463434C
:100CB0000C0475310D040063430D040071520D04E2
:100CC0000055430D040075660D040063430D0400D8
:100CD00063430D040075310D040063430D0400717E
:100CE000520D040071520D0463530E040043320E82
:100CF000040066560E040066560E040061510E0490
:100D00000064440E040066560E040062520E040095
:100D100062521204006444120400756612040071E9
:100D2000521204007553120400634312040075311B
:100D30001204007655120400724512040063431237
:100D40000400765512040063531204002533120484
:100D500000012212040004061204001333120400DE
:100D60001626120400253312040025331A0400133A
:100D7000331E040006251E040005161E040034431D
:100D80001E040005161E040013331E040013331E38
:100D9000040034431E040001221E040034441E04D7
:100DA0000025331E040013231E040013331E040009
:100DB00041301E0441522704001333270400040667
:100DC00027040012222704000122270400253327CC
:100DD00004001222270404062C040013232C0425EB
:100DE000462D0404062E040004062E040025332E8E
:100DF000040013332E040003302E040005322E04A9
:100E00000005322E040005412E040044252E040066
:100E100025332E040005322E040013332E04001354
:100E2000332E040035442E040003472E04000541F0
:100E3000000000054129040005412904001323296D
:100E400004001737290400344429040034432904DA
:100E50000032432904000122290400062529040048
:100E60000625290400062529040033242904000549
:100E70003229040034432904002233290400344475
:100E8000290405232A0434432B0403362C041020A0
:100E90002D0406142E040002462E043444370400A8
:100EA0001222370434433804003444380400133425
:100EB0003804000625380400223438040012323881
:100EC00004001737380406143904001727390400C2
:100ED00006253904001535390402463A0400022477
:100EE0003A040013333A040002243A0415353B0453
:100EF0000625400400062540041232410405324212
:100F00000400133346043242470400012247040020
:100F10000625470400052347040014244704102035
:100F20004C0403124D0406254E04032157041626D3
:100F30005804003243580402465904000625590457
:100F400005165A040033435A040002135A040016CB
:100F5000265A0414245B0410205C040014345C043E
:100F600006255D040032435D0406255E040014344A
:100F70005E0416265F040014345F040001225F043F
:100F80000001225F040001225F040006255F043295
:100F90004160040001226004000122600400051683
:100FA000600400052360040005166004000122604F
:100FB00004003343600400152560040046556004B6
:100FC000001424600400334360040006256004001C
:100FD000324360040246650400324365040006257E
:100FE00065040001226504001424650400143465BE
:100FF000040006256504000122650400142465042C
:10100000033066040033436A040006256A040006C0
:10101000256A040001136A040006256A04000625F7
:101020006A040005236A040014246A040005166A91
:10103000040006256E040006256E040006256E04D5
:101040000016266E040002466E040005166E0400AB
:1010500005236E040014346E040032436E04001342
:10106000336E0405166F040005166F040012326F0C
:1010700004040670040004067004001232700400B8
:1010800005167004000122700400021170040005AE
:101090001670040005167004001323700400142455
:1010A00070040025337004000122700400051670DE
:1010B00004003444700400162670040013337004D6
:1010C0000003127004003243700400142470040002
:1010D0001626700400143470040001227004000508
:1010E0001670040003127004000516700400162622
:1010F000700400051670040013337004001434707B
:1011000004000516700400142470040014347004E4
:101110000005167004000122700400040670041318
:10112000237104000406710400040671040005160E
:101130007104001626710400062571040014247140
:101140000400053271040012327104000625710496
:101150000014247104001424710400162671040084
:101160007655710400423371040072637104007695
:101170005571040066567104006656710476557602
:101180000464447704006050770476557C04004280
:10119000337C040075667C040075667C040044336F
:1011A0007C040066567C040076557C040042337C47
:1011B000040054437C040071527C040055437C04B9
:1011C0000060507C040063537C040063437C040093
:1011D00076557C0463537D0461418204006352822E
:1011E0000400726382040055348204007655820440
:1011F000007655820400443382040076558204420E
:1012000051830400635383040075648304006343C3
:1012100083040055348304007655830400754283AB
:10122000040045348704006555870400765587041B
:101230000076558704007531870400553487040013
:1012400076558B040062528B040044338F04006394
:10125000538F040055348F04003453930400726399
:10126000930400726300000076558E040046368EAB
:10127000040055478E040076558E040073378E04A3
:101280000076558E040075648E040063438E04005E
:1012900063438E040076558E040022118E04007381
:1012A000438E040064348E040062428E0400433492
:1012B0008E040054438E040076558E040031228E35
:1012C000040043348E040075648E0443348F047527
:1012D00031900400556390040071529404007343EC
:1012E000940400556394040071639804006242986A
:1012F00004007245980400765598040067479804E6
:10130000006454980400362598040075669804001B
:10131000756698040075669C040060509C04007615
:10132000559C04006050A004007152A0047655A1A1
:1013300004007655A104007236A104004351A104B3
:10134000006252A1044351A204006353A20400515D
:1013500043AA04007236AE04006242AE0400765521
:10136000AE04006242AE046151AF04003122AF040A
:10137000006343AF04006151AF043122B004624204
:10138000B104006242B104006343B104005443B1AC
:1013900004007564B104004332B104004332B10467
:1013A000005443B104007364B104007261B10400DD
:1013B0007261B104007261B104006353B10400743E
:1013C00076B504005543B504007566B9040075662A
:1013D000BD04007566C504006444C504007566C597
:1013E00004005443C504006656C504004132C504D8
:1013F000006050C504007476C504004233C5040083
:101400007476C504007261C504007261C50400727F
:1014100061C504006141C504007340D504007355E3
:10142000D504007553D504007351D504006656D514
:1014300004005443D5045543D604007564DE04000B
:101440005443DE04007655DE04004332E2040072A9
:1014500054EA04006444EA04004332EA0400765586
:10146000EA04006454EA04006252EA047163EB0483
:10147000006454EB04004433EB04007152EB0400AD
:101480006242EF04006454EF04006656EF04006407
:1014900054EF04007476EF04007564EF047531F0C6
:1014A00004007163F004007564F004007566F004D4
:1014B000007566F004007152F004007564F00400D9
:1014C0007655F004006353F004005543F0040075B2
:1014D00064F004004332F004007261F004006252D0
:1014E000F004007476F004007236F004004333F028
:1014F00004006444F004007564F004007245F004D4
:10150000007564F004006444F004004231F004000B
:101510007566F004007566F004007655F0040074FA
:1015200076F004004333F004007152F0040062428C
:10153000F004006242F004005543F004007564F0CA
:1015400004006656F004006353F004007564F00470
:10155000007564F004007476F004004332F0040077
:101560007531F004007655F004004434F004006254
:1015700042F004007566F004007566F804007261BC
:10158000F804006353F804007566F804007236F836
:1015900004007236F804007236F804007152F80440
:1015A000006242F804006444F804007655F8040030
:1015B0007254F804007364F804007476F80400644C
:1015C00054F804004332F804007245F804007566CC
:1015D000F804000122F804002533FC04000504FC93
:1015E00004000523FC04000516FC04001232FC0470
:1015F0000122010500012201050033410505000516
:101600002305051232060500012206050025330ACE
:10161000050005410A050013230A050005160A0501
:101620000013230A050006250A050006250A050001
:1016300006250A050006250A050003330A050005EC
:10164000230A050015350A050034430A050004067F
:101650000A050012220E0530520F050030210F0539
:101660000004060F050001220F05001333130500C7
:101670001333130500344513050004061305001346
:10168000331305001333130500113113050004064D
:10169000130500344313050003141305001323132B
:1016A0000500022413053321140500254414050008
:1016B0000541140500132314050013231405000429
:1016C0000614050013331405031415050001221533
:1016D00005000122150525461605002533160500CF
:1016E00044321605000625160513231B050032217A
:1016F0001B050004061B050001131B050025441BE8
:10170000050003141B050012321B050004051B0510
:101710000005321B050004061B050032211B0500D5
:1017200034431B050001221B050002111B0500228A
:10173000331B050005141B050010201B0500233476
:101740001B050005231B050036661B050011221B27
:10175000050010201B050034441F050022341F051E
:101760000034442305002214230515352405000602
:1017700025240500062524050015352405122225FB
:101780000500062525050016262505003426250515
:101790000001222505000523250500142625050046
:1017A00003252505001727250500062525053444B2
:1017B000260500031326050003132605000625262B
:1017C000050532270500031327050002242705001D
:1017D00006252705001727270500051427050015EE
:1017E000352705000314270500322127050015358C
:1017F000270544532805062529050005322905013A
:10180000222A050002242A050012222A05000314B8
:101810002A050005232A050015252A050011222A7C
:10182000050032432E050002462E050011222E052A
:101830000014242E050033422E050005162E050047
:1018400002462E050014242E050005162E0500065E
:10185000252E050032432E050016262E05000516FE
:101860002E0500052332050001223205000625322F
:1018700005152533050016263705001434370516DF
:10188000263C050003213C0502463D050015353D7B
:101890000506253E0515253F050005163F050006F2
:1018A000253F050014343F050032433F0500143442
:1018B0003F050001223F050014243F050014343F7A
:1018C000050025333F050004063F050001133F05D1
:1018D0000012323F050002463F050001223F05107D
:1018E0003040051434410502464205435443050087
:1018F0001222430500012243050012324305000372
:101900000243050014244305000246430500143435
:1019100047050625480516264905001424490500F3
:1019200006254905001424490502464A05001030E1
:101930004A0514244B0514344C050010304C0500A6
:1019400006254C050010304C050006254C05000509
:10195000324C050030324C050001224C0500143495
:101960004C050005324C050001134C0516264D05AB
:1019700000122251050005235105001424510500D1
:1019800004065105000523510500062551050002F6
:1019900013510500123251050004065105000406DA
:1019A0005105000516510500152551050004065185
:1019B0000500123251050013335105000330510563
:1019C00000051651050003305105000406510500BD
:1019D0001333510500123251050013235105001332
:1019E0002351050004065105000246510500162644
:1019F0005105000406510500132351050010205124
:101A000005001333550500143455050014345505ED
:101A100000062555050044555505000516550500D9
:101A200032435505001020550500133359050013A6
:101A300033590500051659050013335905000246B0
:101A400059050004065905001020590500062559BE
:101A50000500224359050014245905001525590590
:101A60000033435905000625590514245A0514343A
:101A70005B050013335B050034445B050013235BF7
:101A8000050013335B050013235B050001135B05A1
:101A90000013235B050012225B050004065B0500B2
:101AA00035445B050013335B050013335B0500060B
:101AB000145B050014245B050012325B050005323F
:101AC0005B050006255B050005165B050066565B99
:101AD000056050600500665660050076556005009B
:101AE00053436005007566600500756660057655B0
:101AF0006105007566610500635361056444660510
:101B00000073406605007152660500765566050053
:101B10006353660571526B050064446B05005233D4
:101B20006B050064546B050076556B050075666B9C
:101B3000050075366B050071526B050071526B051F
:101B40000063536B050064546B050076556B05000C
:101B500071526B050073436B050055346B0575645A
:101B60006C050065457005006152700500524070BB
:101B70000500655570050076557005443371050004
:101B8000756471050044337105007542710500628A
:101B900052710500443371050073647105004231D0
:101BA0007105007476710500524071050063437140
:101BB0000500747671050073557105004251710579
:101BC000007355710500766471050063537105005B
:101BD00063537105007476710500534371050073FA
:101BE00064710500756471050075647105007657B0
:101BF00071050076557105004534710500756471F5
:101C000005723672050034227205007152720500A9
:101C1000765572050072457205007655720500759D
:101C200064720500625272050066467205007152C8
:101C30007205007476720500755372050075317275
:101C4000050075317205006343720500715272051B
:101C500000341672050031227205006242720500DE
:101C600071527205007776720500433472050031B7
:101C7000227205316473050055637305007564773E
:101C80000571637805006757780500624284050096
:101C900062428405004233840500423384050062B9
:101CA0004284050062428405007655840500715225
:101CB000840500455684050064548405004523844A
:101CC000050045568805006454880500765588054A
:101CD00000747688050053448C050062528C050020
:101CE00061418C050062528C050071528C050061C7
:101CF000418C050076558C050074768C0500747651
:101D00008C050064548C050053448C050053448CAE
:101D1000050053448C050053448C050064538C0526
:101D20000072368C050064548C050064548C0500E8
:101D300064548C050076558C050064548C05007441
:101D4000768C050055478C050062428C0574768DB3
:101D5000050054438D050072618D050061518D05AC
:101D60000074768D050071528D050074768D050026
:101D700075648D050074768D050060508D050060DA
:101D8000508D050063538D050074768D05007564D4
:101D90008D0575318E050075648E050063438E05D3
:101DA0000074768E050074768E0562428F0500639E
:101DB000538F050043228F054351900500756690AF
:101DC0000500433290050055349005007476900567
:101DD0000074769005007476900500747690050086
:101DE0006656900500747690050063539005007563
:101DF000669405006353940500645494050063538E
:101E0000940500756694050063439405006242944E
:101E100005007564940500675794050041319405E9
:101E2000004131940500553494050067579405002E
:101E3000655494050076559405006353940500435A
:101E4000329405005545940500756694050062526C
:101E50009405756495050043229505006242950539
:101E60000062429505007476950500715295050053
:101E70007163950500433295050072459505006133
:101E8000419505006141950500765595050044335F
:101E900095050071509505007152950500624295B7
:101EA000050071639505006454950500544395053C
:101EB00000753195050065559505007236950572DA
:101EC00054960500715296050045239605007566E7
:101ED0009605007163960500634396050074769637
:101EE00005003164960500756496050074769605C4
:101EF0000074769605007476960500634396050097
:101F000074769A050075649A050074769A050071D6
:101F1000529A050074769A050072639A050064541B
:101F20009A050063439A050063539A050071639A0A
:101F3000050075669A050076559A050074769A052F
:101F40000064549A050074769A050076559A050047
:101F500031219A0531209B050063539B0500715286
:101F60009B050074769B050063539B050033229B01
:101F7000050063439B050055439B050031409B05CD
:101F800031229C050042339C050044339C050043EC
:101F9000229C050074769C050074769C050074767E
:101FA0009C050031229C050062429C050060409C1B
:101FB000050075649C05007655A005005443A005F6
:101FC000007655A005006454A005006454A00500E7
:101FD0006353A005005536A005006545A0050074B3
:101FE00076A005007163A005007163A00500716310
:101FF000A005007664A005007152A005006555A0FB
:1020000005007476A005004434A005006353A005C4
:10201000006343A005007152A005005241A00500D5
:102020006454A005007476A005000224A0051535AF
:10203000A105000514A105000514A105001222A1A7
:1020400005000113A105000406A105000224A10555
:10205000000122A105000224A105000246A10505F8
:1020600014A205003341A205000122A2050033524B
:10207000A205000122A205000514A2051636A3053B
:10208000003341A305003341A305000406A3050066
:102090000224A305001323A305000224A3050005C1
:1020A00014A305002233A305000541A30500053252
:1020B000A305000625A305000406A305001222A31C
:1020C00005001232A305001333A305000504A30580
:1020D0000122A405003445A405001333A40500041F
:1020E00006A405001333A405004152A405002533BE
:1020F000A405000314A405003444A405000406A4A8
:1021000005004132A405002233A405000406A405FD
:10211000001222A405000504A405003241A4050014
:102120003241A405000504A405001222A4050010F4
:1021300030A405004432A405003443A4050004067D
:10214000A405000246A405001323A405000523A44A
:1021500005001323A405000514A405000406A40526
:10216000001030A405000122A405000122A40500EE
:102170000314A405000314A405001122A4050022E1
:1021800041A405000122A405002334A40500133353
:10219000A405001333A405001333A405000122A4F1
:1021A00005001323A405000504A405000122A405CD
:1021B000001222A405000213A405003243A4050066
:1021C0000625A405001425A405001122A40500106D
:1021D00020A405000614A405006657A405000336D4
:1021E000A405001422A405002234A405004664A41A
:1021F000051737A505004655A505000541A90500A9
:102200004613A9054455AA054624AB054637AC0537
:10221000001222AC05003342AC05002233AC0500AD
:102220000532AC05001222AC05001535AC050034B2
:1022300055AC05000516AC05001737AC05000625A2
:10224000AC05000323AC051223AD05001737AD051F
:10225000001323AD05003444AD05003444AD05053D
:1022600023B205003344B205001535B2050015252B
:10227000B205000532B205000614B205001525B2FC
:1022800005001727B605000523B605000224B6058C
:10229000000406B605003544B605003344B6050013
:1022A0000347B605003544B605000122B605000512
:1022B00014B605000122B605001333B60500172732
:1022C000BA05000314BA05001030BA05000625BA95
:1022D00005000627BA05001424BA05001424BA051F
:1022E000000246BA05001424BA05001626BA0500F5
:1022F0000523BA05000625BA05000625BA0500140F
:1023000024BA05000625BA05000406BA050004062D
:10231000BA05000122BA05000516BA05000406BA7E
:1023200005000113BA05000406BA05003243BA05D8
:10233000000514BA05000224BA05003342BA0500AC
:102340000516BA05001122BA05000224BE050005D3
:1023500016BE05002132C205003243C20500062523
:10236000C205000514C205000224C205000625C2EC
:1023700005000514C205000514C205001434C20589
:102380000625C305000514C305001434C305000168
:1023900022C305000514C305001434C3050012321E
:1023A000C305000406C305000122C305004637C368
:1023B00005002201C305000246C305004354C305BE
:1023C000004655C305003241C305000113C3050093
:1023D0000313C305000532C305001232C30500050F
:1023E00023C305000312C305001424C305001122F2
:1023F000C305001434C305000516C305000625C334
:1024000005001626C305000523C305001434C305C3
:10241000001424C305001030C305003444C3050074
:102420000120C305000333C305001434C3050002B3
:1024300035C305000406C305001626C30500143481
:10244000C305003443C305000113C305004455C34D
:1024500005000516C305000113C305001535C305A6
:10246000000323C305000523C305001232C3050082
:102470000625C305000406C305000625C70500039D
:1024800012C705001232C705001232C70500062523
:10249000C705002534C7054655C805001232C805D2
:1024A000000122C805000514C805002544C8050020
:1024B0000406C805003032C805000122C8050032F4
:1024C00043C805001333C805000113C805001131C6
:1024D000C805001323C805001424C805000516C844
:1024E00005001333C805000406C805000113C8051C
:1024F000000220C805000514C805000224C8050014
:102500000514C805000406C805001122C8050032DC
:1025100043C805001424C805001424C8050012226D
:10252000C805000333C805002533C805001122C8BB
:1025300005000514C805001424C805001333C80598
:10254000001222C805000406C805000516C80500CB
:102550001333C8050614C905000516C90500224332
:10256000C905000406C905000614C905000614C9FA
:1025700005000514C905001727C905001434C9054D
:10258000000625C905000113C905000406C9050098
:102590000113C905001434C905000122C90500440E
:1025A00055C905000246C905000113C905001222DC
:1025B000C905003243C905001020C905003142C9D0
:1025C00005001232C905000614C905007566C90563
:1025D000007152C905006444C905007566C905004B
:1025E00060500000004334C405006444C405007614
:1025F00055C405005233C405007655C40500645423
:10260000C405006444C405006353C405007531C4A7
:1026100005006352C405007531C405006050C4054F
:10262000006050C405007531C405006353C4050043
:1026300033410000007340BF05004333BF05006411
:1026400054BF05006454000000635300000075533C
:102650000000006454B005007152B00500736200C0
:1026600000006454AB05003122AB05006141AB05AD
:10267000006141AB05006141AB05007245AB05004F
:102680006555AB05006353AB05004433AB050063F0
:1026900052AB05007655AB05003453AB05005534FD
:1026A000AB05007476AB05007655AB05004231AB47
:1026B00005006353AB05003140AB050063530000D8
:1026C000006252A6050065550000006353A1050095
:1026D000425100000060409C05006343000000730D
:1026E000430000007236000000675700000063538B
:1026F00000000075648305003455830500747683FB
:1027000005006757830500735583050074768305BC
:1027100000555683050034228305003446830500A6
:102720004333830500665683050075640000005539
:102730003400000063530000007476000000524330
:102740000000007566000000723600000063530050
:1027500000007254000000736400000074760000F2
:10276000007655000000723600000016560000008A
:1027700073623D050031223D050076643D0500622F
:10278000423D050076553D050071523D05007152F0
:102790003D050073643D050062423D050064553D02
:1027A0000566553E050075643E050031223E050074
:1027B00057463E050055343E050066464205007109
:1027C0005242050071524205004334420500435312
:1027D00042050071524205007152420500665542A1
:1027E000050075644205006757420500756442059F
:1027F00000645446050064544605006757460500CA
:102800007263000000553400000055633C055344DA
:102810003D050071523D050073033D050074763D92
:10282000050072633D050072453D050072543D058B
:1028300000716341057261420500747642050072C1
:102840003642050060504205007564420500624250
:10285000420500665642050064544205007152422A
:10286000050071524205006454420500635342055D
:1028700000715242054322430500364700000075AF
:102880006400000062423905006343390500654574
:10289000390500615139050063533905006757391F
:1028A000050031223905007261390500634339059D
:1028B000005534390500624239050062523905007D
:1028C00067573905007152390500614139050066C5
:1028D000563905006343390500747639050074766E
:1028E0003D050062423D050055433D050064443D01
:1028F000050064443D050053423D050071633D05FC
:102900000062423D0575663E050075663E05004362
:10291000223E0543513F050074763F050034463F93
:10292000050062423F050064443F050064443F05E2
:102930000071634305007566430500644443050068
:1029400066564305006656430500747643050071DC
:102950006343050054434305006444430500635347
:1029600043050062524305007564430500747643D5
:102970000500664643050063534305006353430562
:102980000065544305007355430500634343050048
:1029900042334305006646430500747243050075E3
:1029A000664305007476430500756443050074763C
:1029B000430500544443050043224305004322439A
:1029C0000500716300000076553E050043323E0568
:1029D0000061413E050064543E050041313E050062
:1029E00055433E050052423E050073333E050072DA
:1029F000363E050072453E050060503E05006444C9
:102A00003E050062423E050076553E050071523E8D
:102A1000050073553E050073633E050073633E0574
:102A20000075533E050072630000007476000000DC
:102A30007655340500624234050063533405634320
:102A4000350500634335050074763505006353355D
:102A500005006353350500635335050055343505CE
:102A6000006455350500635335050074763505005F
:102A700064443505004331350500433235050063B4
:102A80005235050075643505005243350500715215
:102A900035050064443505007476350500755335F9
:102AA000050067573505007163350500433235056C
:102AB0000060403505007152350500715235050042
:102AC00076553505007655350500644435050064B6
:102AD00044350500735535050054433505007152E2
:102AE0003505006343350500615135050043223546
:102AF00005007476350500756635050064443D05AE
:102B00000067573D050043323D050061513D05001A
:102B100071523D050074763D050044343D05007456
:102B2000763D050034253D050076643D050074764C
:102B30003D050076643D050076643D050076553D13
:102B4000050036573D050076553D050063533D05AC
:102B50000064443D050064443D050064443D0500B7
:102B600074763D050076553D050076553D050075AA
:102B7000743D050062523D050031423D050055435C
:102B80003D050043323D050072633D050071633D24
:102B9000050064443D050005143D050033523D0524
:102BA0000033213D050002243D050013343D05009E
:102BB00012223D050001223D050003333D050005BD
:102BC000143D050003133D050033213D0500024679
:102BD0003D050041533D050004063D050005233D2C
:102BE000050004063D050036463D050010203D0564
:102BF0000002463D050006143D050022343D050057
:102C000003133D0500040641050033344105000669
:102C100025410500012241050030214505003021F4
:102C200045050030214905001333490500022449B8
:102C300005001333490500253349050003144905F0
:102C400000040649050041524905000406490500F3
:102C500025444905000504490500021349050017EC
:102C60002749050013334905004352490500122244
:102C700049050001224905000406490500024649AC
:102C800005000406490500022449050012224905F1
:102C900000040649050015254905001322490500D1
:102CA0001737490500062549050047254905000352
:102CB0003649050011224905000406490500102087
:102CC00049050036664905000541490500022449C9
:102CD000050003134D050022414D050006254D0555
:102CE0000006254D050046554D050011224D0500F5
:102CF00055664D050003364D0506144E0500372672
:102D00004E050015354E050006254E050013344EC0
:102D1000050004064E050013254E050013254E053B
:102D20000005234E050004064E050006254E05004D
:102D300032434E0532424F050006254F0500062559
:102D40004F050037474F050017374F050035444FF3
:102D5000050004064F050004034F050005234F0539
:102D60000017374F050002134F050032544F05324C
:102D70002350050017375005001737500500163649
:102D80005005001727500500103050050012325032
:102D90000500334350050017275005003344500504
:102DA00000022450050002245005000406500500CE
:102DB00022435005002243500500112250050033E4
:102DC0004250050004065005002434500500061446
:102DD00050050006145005004655500500112250BC
:102DE00005000516500500040650050002135005A5
:102DF00000324350050003125005004637500500CD
:102E00001424500500254450050005165005000403
:102E10000650050003125005012255050004065511
:102E2000050011215505001424550500040655051B
:102E3000003343550500037355050004065505008E
:102E400005325505000532550500172755050011B7
:102E50002255050006255505001434550500254664
:102E6000550500334355050033435505003343559D
:102E700005334456050004065605000406560500B1
:102E800004065605000514560500143456050006C0
:102E90002556050005325605002243560500040656
:102EA00056050005145605003243560500112156FB
:102EB000050004065605003726560500024656054D
:102EC000001434560500052356050001225605005E
:102ED000142456050013215605000402560500016E
:102EE000225605000122560500040656050014244A
:102EF00056050005235605000625560500112256E5
:102F00000500112256050005165B050023325B05FE
:102F10000034445B050005325B050022105B0500B0
:102F200010305B050020325B050025335B05000592
:102F3000325B050014245B050003145B0500334479
:102F40005B050033435B050005325B050004065B4F
:102F5000050016265B050004065B050010205B05D6
:102F60000006255B050003125B050004065B0500F7
:102F700001225B050001135B050001225B050004D3
:102F8000065B050001225B050001225B05000406CB
:102F90005B050022345B050025345B050011215BD5
:102FA000050006255B050004065B050010205B0597
:102FB0000003125B050001225B050013335B050073
:102FC00001225B050001225B050014345B05000152
:102FD000135B050001205B050032435B050004061E
:102FE0005B050003125B050014245B050016265BDD
:102FF000050016265B050033435B050001225B05D7
:103000000004065B050013235B050013335B05001A
:1030100013335B050005325B050022305B050014AD
:10302000245B050033225B050033525B0500173734
:103030005B0513335C0506255D050004066205008B
:10304000463762050025446205001424620500032A
:103050003062050010206205001525620500040697
:103060006205001425620500053262050010206229
:10307000050004066205000406620500334362058C
:1030800000133362050006146205000406620500A1
:103090001434620500143462050014346205001310
:1030A0002362050013236205000516620500032351
:1030B00062050010306205000321620500062562EA
:1030C0000500053262050001226205000514620553
:1030D00000040662050074760000006152000000E2
:1030E00075640000007152000000716300000076FA
:1030F00064000000747600000063530000007476E2
:103100000000006050000000756400000060500086
:10311000000074750000005444000000715200006B
:1031200000736200000055630000003122000000BF
:103130006050000000523300000055340000007061
:1031400071000076640000007655000000654500BF
:10315000000076640000004373000043400000005C
:103160006343000000635300007476000000635363
:10317000000000443400000076640000004021009C
:103180000000766400000044330000007564000015
:103190000061520000006343000000523300000051
:1031A000635300000031130000007655000000401A
:1031B000510000006152000000723600000073559B
:1031C00000000071520000006414000000757400DB
:1031D0000000765500000075640000006252000097
:1031E0000034250000007476000000462500000031
:1031F0006242000000654500000065450000007661
:1032000055000000724500000076560000007776F9
:10321000000000766400000076550000654500005F
:103220000074760000006555000000716300000026
:10323000554500000064550000005534000000773B
:1032400076000000747500000062420000005534F2
:103250000000006555000000754200000075310057
:10326000000071520000007340000000654500003E
:1032700000756400000074760000007163000000B7
:103280005543000000747600000073400000007693
:1032900064000000566700000062420000005543D1
:1032A0000000006444000000553600000061410049
:1032B00000006747000000645400000065540000EF
:1032C00000747200000067470000006747000000BC
:1032D00064440000003625000000715200000043E5
:1032E000510000006454000000756600000060405A
:1032F0000000007245000000756400000075640065
:1033000000005443000000544300000061510000DD
:103310000075420000007152000000747600000049
:103320007152000000544400000073550000006317
:103330005300000074760000004332000000344265
:103340000000005543000000716300000055340088
:103350000000707100000055430000007566000019
:10336000007152000000624200006134000000550C
:1033700034000000634300000074760000007564B0
:1033800000000071520000005547000000747300F7
:1033900000006444000000756600000074760000C0
:1033A00000747600000062420000007152000000CC
:1033B0007236000000645400000064540000007184
:1033C00050000000554700000053440000006444D2
:1033D0000000007476000000715200000075660065
:1033E000000075660000006454000000665600008E
:1033F000007261000000715200000074760000004D
:1034000052430000004233000000553400000055D4
:10341000470000007564000000756400000034552A
:1034200000000041310000007553000000405100D1
:103430000000756600000062520000006353000047
:103440000062420000007163000000716300000030
:1034500042330000004233000000423300000062AB
:1034600052000000756400000061410000006757D1
:103470000000007531000000645400000064540036
:1034800000007152000000765500000064540000F6
:10349000006454000000614100000063440000002B
:1034A0005443000000755300000076550000007280
:1034B00045000000362700000076640000007476A6
:1034C0000000004523000000715200000060400031
:1034D00000006252000000625200000062520000D0
:1034E0000073740000007374000000737400000027
:1034F0004334000000433400000073740000006097
:10350000500000007152000000756600000060501D
:103510000000007163000000423300000074760078
:1035200000006050000000433400000062420000D0
:1035300000532000000055430000007553000000B8
:1035400060500000007564000000765500000066C1
:103550005600000052400000005536000000715235
:10356000000000715200000062420000007564001B
:103570000000423300000061510000007261000051
:103580000071520000006152000000675700000007
:103590006242000000747600000071630000007158
:1035A00052000000615100000062420000007261A0
:1035B00000000072630000003142000000747600D9
:1035C00000006353000000665600000064430000E2
:1035D0000060500000007476000000747600000067
:1035E0005240000000423300000074760000007179
:1035F0005200000043340000004334000000433414
:1036000000000063530000004333000000754200D7
:103610000000715200000075530000007657000052
:1036200000316400000045230000007655000000D2
:10363000755300000055470300008F8F0300008F73
:103640008F0300008F8F0300008F8F0300008F8F88
:103650000300008F8F0300008F8F0300008F8F0304
:1036600000008F8F0300008F8F0300008F8F0000FA
:1036700000706E6272716B7A77627172626EBA30CC
:103680000F310732763287329832B03249335733AE
:1036900074332E3438345E3479348D34E434F83471
:1036A00034353E3571357B35A135AB3503360D36B6
:1036B0002D3651367A36CD37E237183869387338B7
:1036C00093389D38BD38C738EE38F83815394D6F06
:1036D00076653A0050726F6D6F74653A0048696E96
:1036E000743F004C6576656C3A0047756573733AB4
:1036F000004261636B3F00537761703F0056657213
:103700006966793F00416E616C7973653F00436C77
:103710006561723F005371756172653A0053696467
:10372000653A00536176653F004C6F61643F004E1F
:1037300065773F0041626F75743F000042726561BA
:103740006B00496C6C6567616C004D6174652100AC
:103750004472617700446F6E650071007200620010
:103760006E002B0000000000000000000000202080
:1037700020202020202020202020202020202A2A35
:103780002A2043686573732050726F6469677920DB
:10379000312E3220627920437269737469616E2020
:1037A0005A61736C6F2C206465646963617465642D
:1037B00020746F2074686520657665726C6173741F
:1037C000696E67206D656D6F7279206F662047683E
:1037D000656F72676865204F707269636975202A2A
:1037E0002A2A2020202020202020202020202020C5
:1037F00020202020202020202020202020202020C9
:103800002020000000000000000000000000000078
:1038100000000000000000000000000000000000A8
:103820000000000000000000000000000000000098
:103830000000000000000000000000000000000088
:103840000000000000000000000000000000000078
:103850000000000000000000000000000000000068
:103860000000000000000000436865737320507280
:103870006F6469677920202076312E3220202863FA
:1038800029323032310000003C5E3E5E010102020E
:1038900002020101000003050A0F141414140F0A98
:1038A000050300000000000000000000010101FE0F
:1038B000FE010101010200030300020102030305EE
:1038C00005030302040405070705040406070809A5
:1038D000090807060607080909080706000000008E
:1038E00000000000000000000000000006070809BA
:1038F000090807060607080909080706040405075A
:103900000705040402030305050303020102000383
:1039100003000201010101FEFE010101000000009F
:1039200000000000FF000101010100FF000102038F
:10393000030201000102040505040201010305055B
:103940000505030101030505050503010102040541
:10395000050402010001020303020100FF0001014E
:10396000010100FF00000000000000000000000056
:103970000000000000000000000000000000010145
:103980000101000000000102020100000001020329
:103990000302010000000000000000000000000021
:1039A0000000000000000000000000000000000017
:1039B00000000000000102030302010000000102F8
:1039C00002010000000001010101000000000000F0
:1039D00000000000000000000000000000000000E7
:1039E00000000000000000000000000002040303CB
:1039F0000303040202030404040403020203040494
:103A00000404030202030404040403020203040482
:103A10000404030202040303030304020000000081
:103A20000000000000000000000000000000000096
:103A30000000000000000000000000000000000086
:103A40000000000000000000000000000000000175
:103A50000100000003030303030303030202020245
:103A60000202020202020202020202020303030332
:103A70000303030300000001010000000000000038
:103A80000000000000000000000000000000000036
:103A90000000000000000000000000000000000026
:103AA0000000000000000000000000000001010113
:103AB00001010100000102020202010000010203F3
:103AC00003020100000102030302010000010202DF
:103AD00002020100000101010101010000000000DB
:103AE000000000000000FFFEFEFF0000FFFFFEFDE3
:103AF000FDFEFFFFFEFDFCFCFCFCFDFEFDFCFBFBF8
:103B0000FBFBFCFDFDFCFBFBFBFBFCFDFEFDFCFCF5
:103B1000FCFCFDFEFFFFFEFDFDFEFFFF0000FFFEC3
:103B2000FEFF000000000000000000000202010093
:103B3000000102020000010000010000FDFCFBFB8F
:103B4000FBFBFCFDFDFCFBFBFBFBFCFD00000100A7
:103B5000000100000202010000010202000000005A
:103B60000000000000010203030201000104060737
:103B70000706040103060809090806030408090BDF
:103B80000B0908040408090B0B09080403060809BB
:103B900009080603010406070706040100010203E1
:103BA000030201000003060909060300030C1215B5
:103BB00015120C030912181B1B1812090C181B21D3
:103BC000211B180C0C181B21211B180C0912181B87
:103BD0001B181209030C121515120C030003060919
:103BE0000906030019191714100B0600191A1F23D0
:103BF00015100B06171F23261A15100B1423262940
:103C0000211C151010151C21292623140B10151A20
:103C100026231F17060B1015231F1A1900060B1059
:103C20001417191900060B1014171919060B101583
:103C3000231F1A190B10151A26231F1710151C21E4
:103C40002926231414232629211C1510171F232687
:103C50001A15100B191A1F2315100B061919171412
:103C6000100B060000000000000000000000000033
:103C70000000000000000000000000000000000143
:103C80000100000000000001010000000000000031
:103C90000000000000000000000000000000000024
:103CA000000000000E0D0C0B0A09080706050403AE
:103CB000020100000102030405060708090A0B0CB3
:103CC0000D0E000102040810200102040810200F4C
:103CD000FFEF1101F11020F0E0000D0C0B0A0908B4
:103CE0000708090A0B0C0D0E000D0C0B0A0908073A
:103CF000060708090A0B0C0D000C0B0A0908070639
:103D000005060708090A0B0C000B0A090807060537
:103D10000405060708090A0B000A09080706050436
:103D2000030405060708090A000908070605040335
:103D30000203040506070809000807060504030234
:103D40000102030405060708000706050403020133
:103D50000001020304050607000807060504030224
:103D60000102030405060708000908070605040305
:103D70000203040506070809000A090807060504E6
:103D8000030405060708090A000B0A0908070605C7
:103D90000405060708090A0B000C0B0A09080706A8
:103DA00005060708090A0B0C000D0C0B0A09080789
:103DB000060708090A0B0C0D000E0D0C0B0A09086A
:103DC0000708090A0B0C0D00020005000F001E0079
:103DD0003C007800B4002C018403FFFF3E259C26A4
:103DE000CA2614275E27A8274C28AA29D829222AC0
:103DF0006C2AB62A22532B5334533C5344534C530E
:103E000054535C5364536C5374530153BC55E55580
:103E10000E56375660568956B256DB5604572D5704
:103E200056577F57BC6546667566BF660967536718
:103E300082670C683B688568CF6819690CEA0DBF1A
:103E400008E00EBFCDEADDE00E949F1F002311F0C5
:103E50000E94B11F0E94E9580E94301F0C94D71F86
:103E60000C94D71F0024E8E0EA9532F0001F001CF4
:103E70000416D0F3041AF8CF001F402D00950895C2
:103E8000FF27442312F4F1604195002312F4F095CA
:103E900001950E94321FF0FD0195F1FD41950895B5
:103EA00000241124EFE0001F111F001C111C041638
:103EB000150610F0041A150AEA95AAF7001F111F3B
:103EC000402D512D00951095089500241124222491
:103ED0003324E0E2EA9592F0001F111F221F331FE6
:103EE000001C111C221C331C04161506260637065E
:103EF00088F3041A150A260A370AECCF001F111F8F
:103F0000221F331F402D512D622D732D00951095CA
:103F1000209530950895AF93BF93B12FA02F0190B6
:103F20000D9241505040D9F7BF91AF910895E00FE5
:103F3000F11F02900A9201501040D9F7089501E054
:103F4000089520E02D9302D0E1F70895015010402C
:103F5000202F212B0895C89531960D92F7DFD9F7C0
:103F600008958EEB96EFE82FF92FC895002D319626
:103F7000C895102DE82FF92F3296C895A02D3196AF
:103F8000C895B02DE82FF92F3496C895202D31967D
:103F9000C895422F402921F0E22FF02DDCDF01C02F
:103FA000D0DF069616EF8A3C9107E8F208950C944C
:103FB000DA1F00008895FECFE02FF12F208120FF2F
:103FC00007C0E02FF12F00810E7F008301E00895EC
:103FD000E02FF12F208121FF07C0E02FF12F00817A
:103FE0000D7F008301E00895E02FF12F208122FF53
:103FF00007C0E02FF12F00810B7F008303E00895BD
:10400000E02FF12F208123FF07C0E02FF12F008147
:10401000077F008303E00895E02FF12F208124FF24
:1040200007C0E02FF12F00810F7E008305E0089587
:10403000E02FF12F208125FF07C0E02FF12F008115
:104040000F7D008305E00895E02FF12F208126FFEA
:1040500007C0E02FF12F00810F7B008309E0089556
:10406000E02FF12F208127FF07C0E02FF12F0081E3
:104070000F77008302E1089500E0089510E001E069
:1040800001C003950031D8F4202F30E0F901EF5141
:10409000FE4F2081322F3878332399F730E0F90131
:1040A000EF59FE4F20812F70225011F02A9529F4EC
:1040B0001395123030F300E0089500E0089510E009
:1040C00001E001C003950031D8F4202F30E0F90160
:1040D000EF50FE4F2081322F3878332399F730E0AC
:1040E000F901EF59FE4F20812F70285011F02A95C9
:1040F00029F41395123030F300E0089500E008959C
:1041000001E008953B2F6A2F282FECE4F2E00081B4
:10411000118147E050E00E94501F802F06E012E01E
:1041200047E050E00E94501F801B883020F0009133
:104130000402083010F400E0CBC0ACE4B2E0ED9132
:10414000FC91119737971081ACE4B2E0ED91FC91AE
:10415000119774970081101709F0B9C0ACE4B2E070
:10416000ED91FC91119774971081ACE4B2E0ED9160
:10417000FC911197B3970081101709F0A8C0ACE427
:10418000B2E0ED91FC911197B3971081ACE4B2E0ED
:10419000ED91FC911197F0970081101709F097C0ED
:1041A000ACE4B2E0ED91FC91119736971081ACE44C
:1041B000B2E0ED91FC91119775970081101709F00D
:1041C00086C0ACE4B2E0ED91FC9111977597108137
:1041D000ACE4B2E0ED91FC911197B2970081101719
:1041E00009F075C0ACE4B2E0ED91FC911197B29783
:1041F0001081ACE4B2E0ED91FC911197F197008150
:10420000101709F064C0ACE4B2E0ED91FC91119795
:104210003E971081ACE4B2E0ED91FC9111977B9751
:104220000081101709F053C0ACE4B2E0ED91FC91AD
:1042300011977B971081ACE4B2E0ED91FC9111975E
:10424000BA970081101709F042C0ACE4B2E0ED91DA
:10425000FC911197BA971081ACE4B2E0ED91FC911A
:104260001197F7970081101791F5ACE4B2E0ED914A
:10427000FC9111973D971081ACE4B2E0ED91FC9177
:1042800011977C970081101711F5ACE4B2E0ED9125
:10429000FC9111977C971081ACE4B2E0ED91FC9118
:1042A0001197B9970081101791F4ACE4B2E0ED9149
:1042B000FC911197B9971081ACE4B2E0ED91FC91BB
:1042C0001197F8970081101711F401E001C000E088
:1042D000822FA62FB32F089500910402043611F403
:1042E00001E0089500E0089522970883198308816A
:1042F00007770883098107770983088110E0F801AF
:10430000EF59FE4F00810F700A9519F0065049F0E1
:1043100010C008810077003611F401E00BC000E006
:1043200009C008810077003111F401E003C000E00A
:1043300001C000E0229608953B2E2A2E502FD9016D
:104340000C91013011F461E001C060E000E00C93D9
:1043500040E006C0EA2FFB2F0081046000834395F4
:104360004830D8F4042F10E0F801E15EFE4F0081E0
:10437000050F102F1878112391F710E0F801EF596D
:10438000FE4F00810F70023051F7EA2FFB2F0081A2
:1043900002FFE0CF0C9108600C9342E001C043950E
:1043A000443008F060C0042F10E0F801E95DFE4FD2
:1043B0002081052F30E010E002C011E03395112379
:1043C00071F7020F702F7878772349F7002E1124A8
:1043D000F001EF59FE4F70817F70705079F37A953C
:1043E00039F0725029F17250A1F17A95B1F0E5CF10
:1043F000332389F4EA2FFB2F708170FF06C0EA2F68
:10440000FB2F708172607083D9CFEA2FFB2F7081F0
:1044100071607083D3CF11E0D1CF332339F4EA2F09
:10442000FB2F10811068108311E0C8CF11E0C6CFB8
:10443000EA2FFB2F708172FF06C0EA2FFB2F7081DD
:1044400078607083BBCFEA2FFB2F7081746070831C
:10445000B5CFEA2FFB2F708170647083662309F457
:10446000ADCF11E0ABCF40E001C04395423008F042
:1044700047C0042F10E0F801E95DFE4F2081052FB1
:1044800030E010E002C011E03395112371F7020F04
:10449000702F7878772349F7002E1124F001EF5917
:1044A000FE4F70817F70705079F3735079F07250C5
:1044B000F1F07A9541F7332339F4EA2FFB2F10817D
:1044C0001068108311E0E0CF11E0DECFEA2FFB2F60
:1044D000708172FF06C0EA2FFB2F708178607083B5
:1044E000D3CFEA2FFB2F708174607083CDCFEA2F7A
:1044F000FB2F708170647083662331F211E0C4CFAA
:1045000040E001C04395443008F047C0042F10E05C
:10451000F801E55DFE4F2081052F30E010E002C07C
:1045200011E03395112371F7020F702F78787723FC
:1045300049F7002E1124F001EF59FE4F70817F7072
:10454000705079F3745079F07A95F1F07A9541F7DB
:10455000332339F4EA2FFB2F10811068108311E008
:10456000E0CF11E0DECFEA2FFB2F708174FF06C091
:10457000EA2FFB2F708170627083D3CFEA2FFB2F5D
:10458000708170617083CDCFEA2FFB2F70817064D2
:104590007083662331F211E0C4CFA22DB32D0895AC
:1045A0003B2E2A2E502FD9010C91013011F461E0DD
:1045B00001C060E000E00C9340E006C0EA2FFB2F52
:1045C00000810460008343954830D8F4042F10E044
:1045D000F801E15EFE4F0081050F102F18781123BE
:1045E00091F710E0F801EF59FE4F00810F7008308D
:1045F00051F7EA2FFB2F008102FFE0CF0C910860FA
:104600000C9340E001C04395423008F060C0042F95
:1046100010E0F801E95DFE4F2081052F30E010E049
:1046200002C011E03395112371F7020F702F7878D3
:10463000772349F7002E1124F001EF59FE4F7081C6
:104640007F70705079F3775039F0725029F17250C1
:10465000A1F17A95B1F0E5CF332389F4EA2FFB2F4E
:10466000708170FF06C0EA2FFB2F7081726070832B
:10467000D9CFEA2FFB2F708171607083D3CF11E007
:10468000D1CF332339F4EA2FFB2F10811068108328
:1046900011E0C8CF11E0C6CFEA2FFB2F708172FF67
:1046A00006C0EA2FFB2F708178607083BBCFEA2FA2
:1046B000FB2F708174607083B5CFEA2FFB2F708160
:1046C00070647083662309F4ADCF11E0ABCF42E094
:1046D00001C04395443008F047C0042F10E0F801B2
:1046E000E95DFE4F2081052F30E010E002C011E0AF
:1046F0003395112371F7020F702F7878772349F7DC
:10470000002E1124F001EF59FE4F70817F70705020
:1047100079F3795079F07250F1F07A9541F73323BB
:1047200039F4EA2FFB2F10811068108311E0E0CFDD
:1047300011E0DECFEA2FFB2F708172FF06C0EA2F57
:10474000FB2F708178607083D3CFEA2FFB2F7081AD
:1047500074607083CDCFEA2FFB2F708170647083FB
:10476000662331F211E0C4CF40E001C043954430EC
:1047700008F047C0042F10E0F801E55DFE4F2081EE
:10478000052F30E010E002C011E03395112371F7DE
:10479000020F702F7878772349F7002E1124F0014B
:1047A000EF59FE4F70817F70705079F37A5079F035
:1047B0007A95F1F07A9541F7332339F4EA2FFB2FFC
:1047C00010811068108311E0E0CF11E0DECFEA2FF6
:1047D000FB2F708174FF06C0EA2FFB2F708170627F
:1047E0007083D3CFEA2FFB2F708170617083CDCFA0
:1047F000EA2FFB2F708170647083662331F211E021
:10480000C4CFA22DB32D0895402F012F50E0FA01FF
:10481000EF59FE4F20812F70EBE5F3E030E0E20F1F
:10482000F31F1491EDE7F1E0602F70E069587F4FBE
:1048300050E0641B750BE60FF71F349131233323CF
:10484000E9F1E8E6F3E030E0E20FF31F1491112301
:1048500089F1ECE6F2E0602F70E069587F4F50E09C
:10486000641B750BE60FF71F5491EEE8F3E030E0A0
:10487000E20FF31F349110E016C0642F70E0FB01CB
:10488000EF59FE4F20812F70222359F0EEE8F3E01C
:10489000622F70E0E60FF71F24912323222341F0BB
:1048A0001395123048F4450F401739F701E0089589
:1048B00000E0089501E0089500E0089500E0089503
:1048C000202F30E0F901EF59FE4F00810F70EBE52A
:1048D000F3E0402F50E0E40FF51F3491EDE7F1E0F5
:1048E000412F50E049585F4F622F70E0461B570B35
:1048F000E40FF51F44914323442329F1E8E6F3E054
:10490000402F50E0E40FF51F04910023D1F0ECE6B6
:10491000F2E0412F50E049585F4F30E0421B530B0B
:10492000E40FF51F0491200F211711F401E0089501
:1049300030E0F901EF59FE4F30813323A1F300E05D
:10494000089501E0089500E00895BA93AA939A9318
:104950008A93B12F013019F481EE91E002C081EF0A
:1049600091E0A0E00A2F10E0FC01E00FF11F0081B0
:10497000102F1878112331F41B2FA2DF002311F020
:1049800001E004C0A395A03168F300E089919991FA
:10499000A991B99108955A924A92BA93AA939A9377
:1049A0008A93402E00E711E05524F201EF59FE4FA3
:1049B000208130E02F703070020F131FF801049136
:1049C000013019F481EF91E002C081EE91E0A0E0A6
:1049D000B0E0FC01EA0FFB1FB0810B2F0878002329
:1049E00059F41B2F042D6CDF002331F00B2F9ED6C2
:1049F000002311F001E004C0A395A03148F300E0CA
:104A000089919991A991B991499059900895BA9233
:104A1000AA929A928A927A926A924A92BA93AA93A4
:104A20009A938A932297013029F401EE802E01E0B7
:104A3000902E04C001EF802E01E0902EB0E0AA2459
:104A4000BB24F401EA0DFB1DA0810A2F0878002386
:104A500009F028C60A2F10E0F801EF59FE4F008137
:104A60000F700A950C3008F01DC6F2E00F9FF001A0
:104A7000E452F24C05901490F00109948A2F805F63
:104A800090E0FC01EF59FE4F00810F70002309F008
:104A900044C0A8838983088119810E941C5C00237B
:104AA00029F4B395B23011F402E002C60A2F007760
:104AB000003699F508810F7708830981006809831A
:104AC000088119810E941C5C002329F4B395B2303F
:104AD00011F402E0EDC508810068088309810068CF
:104AE0000983088119810E941C5C002329F4B39575
:104AF000B23011F402E0DCC5088100680883098146
:104B00000F770983088119810E941C5C002329F416
:104B1000B395B23011F402E0CBC58A2F805E0A2F24
:104B20000077003101F50A2F10E0005F1F4FF801F8
:104B3000EF59FE4F00810F700023A9F490E0FC01B3
:104B4000EF59FE4F00810F70002369F4A883898319
:104B5000088119810E941C5C002329F4B395B230AE
:104B600011F402E0A5C58A2F815F082F0878002381
:104B700009F055C000E711E090E0FC01EF59FE4F4D
:104B8000208130E02F703070020F131FF801049164
:104B9000023009F044C0A8838983088119810E94EA
:104BA0001C5C002329F4B395B23011F402E080C5F7
:104BB0000A2F0077003699F508810F77088309815D
:104BC00000680983088119810E941C5C002329F474
:104BD000B395B23011F402E06BC508810068088318
:104BE000098100680983088119810E941C5C0023E7
:104BF00029F4B395B23011F402E05AC50881006877
:104C0000088309810F770983088119810E941C5C40
:104C1000002329F4B395B23011F402E049C58A2F7C
:104C20008F5E082F0878002309F055C000E711E0D7
:104C300090E0FC01EF59FE4F208130E02F70307082
:104C4000020F131FF8010491023009F044C0A88339
:104C50008983088119810E941C5C002329F4B39583
:104C6000B23011F402E024C50A2F0077003699F51E
:104C700008810F77088309810068098308811981F9
:104C80000E941C5C002329F4B395B23011F402E0B9
:104C90000FC50881006808830981006809830881BD
:104CA00019810E941C5C002329F4B395B23011F4E1
:104CB00002E0FEC408810068088309810F77098338
:104CC000088119810E941C5C002329F4B395B2303D
:104CD00011F402E0EDC4009102020878002309F00B
:104CE000E1C48A2F815F00910202801779F4A883C2
:104CF0008983088119810E941C5C002309F0D2C4B9
:104D0000B395B23009F0CEC402E0D2C48A2F8F5ED0
:104D100000910202801709F0C5C4A8838983088125
:104D200019810E941C5C002309F0BCC4B395B23009
:104D300009F0B8C402E0BCC4662401C0639408E072
:104D4000601608F0AFC47724F301E15EFE4F808166
:104D50008A0F082F0878002389F700E711E090E018
:104D6000FC01EF59FE4F208130E02F703070020FB0
:104D7000131FF8010491013009F3A8838983088186
:104D800019810E941C5C0023C9F6B395B230B1F6BC
:104D900002E08EC4662401C0639404E0601608F04B
:104DA00081C47724F301E95DFE4F90818A2F44246A
:104DB00002C044244394442079F7890F082F0878CF
:104DC000002351F700E711E0282F30E0F901EF59F7
:104DD000FE4F208130E02F703070020F131FF8015A
:104DE0000491005029F00A9521F30A9571F0E3CF60
:104DF000A8838983088119810E941C5C0023D9F64D
:104E0000B395B230C1F602E053C4A8838983442429
:104E10004394088119810E941C5C002361F6B395BC
:104E2000B23049F602E044C4662401C0639404E051
:104E3000601608F037C47724F301E55DFE4F9081DA
:104E40008A2F442402C044244394442079F7890FD4
:104E5000082F0878002351F700E711E0282F30E0F1
:104E6000F901EF59FE4F208130E02F703070020FB2
:104E7000131FF8010491005029F00A9521F30A95B7
:104E800071F0E3CFA8838983088119810E941C5C9B
:104E90000023D9F6B395B230C1F602E009C4A88365
:104EA000898344244394088119810E941C5C002357
:104EB00061F6B395B23049F602E0FAC3662401C048
:104EC000639408E0601608F0EDC37724F301E95E0F
:104ED000FE4F90818A2F442402C0442443944420EE
:104EE00079F7890F082F0878002351F700E711E0C0
:104EF000282F30E0F901EF59FE4F208130E02F706C
:104F00003070020F131FF8010491005029F00A9528
:104F100021F30A9571F0E3CFA88389830881198171
:104F20000E941C5C0023D9F6B395B230C1F602E0B2
:104F3000BFC3A883898344244394088119810E94B4
:104F40001C5C002361F6B395B23049F602E0B0C3B1
:104F5000662401C0639408E0601638F57724F301F5
:104F6000E95EFE4F80818A0F082F0878002391F7B1
:104F700000E711E090E0FC01EF59FE4F208130E0A6
:104F80002F703070020F131FF8010491013011F3DC
:104F9000A8838983088119810E941C5C0023D1F6B3
:104FA000B395B230B9F602E083C3A43009F07AC3F6
:104FB00000916501063009F075C300916601002378
:104FC00011F401E001C000E0002331F1009167011C
:104FD000002311F401E001C000E00023E9F000919A
:104FE00068010430C9F414E002E0AFDC0023A1F44E
:104FF00015E002E0AADC002379F404E0088306E06F
:105000000983088119810E941C5C002329F4B3954F
:10501000B23011F402E04CC300916401002311F49A
:1050200001E001C000E0002309F43CC300916301EA
:10503000002311F401E001C000E0002309F432C3B1
:1050400000916201002311F401E001C000E000239F
:1050500009F428C300916101043009F023C314E06E
:1050600002E073DC002309F01DC313E002E06DDCF5
:10507000002309F017C304E0088302E009830881D4
:1050800019810E941C5C002309F00CC3B395B23057
:1050900009F008C302E00CC38A2F805190E0FC01A4
:1050A000EF59FE4F00810F70002309F044C0A88320
:1050B0008983088119810E941C5C002329F4B3951F
:1050C000B23011F402E0F4C20A2F0077003199F5F2
:1050D00008810F7708830981006809830881198195
:1050E0000E941C5C002329F4B395B23011F402E055
:1050F000DFC208810068088309810068098308818C
:1051000019810E941C5C002329F4B395B23011F47C
:1051100002E0CEC208810068088309810F77098305
:10512000088119810E941C5C002329F4B395B230D8
:1051300011F402E0BDC28A2F80520A2F0077003698
:1051400001F50A2F10E000511040F801EF59FE4F11
:1051500000810F700023A9F490E0FC01EF59FE4F8D
:1051600000810F70002369F4A88389830881198165
:105170000E941C5C002329F4B395B23011F402E0C4
:1051800097C28A2F8F50082F0878002309F055C046
:1051900000E711E090E0FC01EF59FE4F208130E084
:1051A0002F703070020F131FF8010491013009F0C5
:1051B00044C0A8838983088119810E941C5C002354
:1051C00029F4B395B23011F402E072C20A2F0077CD
:1051D000003199F508810F770883098100680983F8
:1051E000088119810E941C5C002329F4B395B23018
:1051F00011F402E05DC2088100680883098100683B
:105200000983088119810E941C5C002329F4B3954D
:10521000B23011F402E04CC20881006808830981B1
:105220000F770983088119810E941C5C002329F4EF
:10523000B395B23011F402E03BC28A2F8151082F9E
:105240000878002309F055C000E711E090E0FC0168
:10525000EF59FE4F208130E02F703070020F131F86
:10526000F8010491013009F044C0A88389830881C2
:1052700019810E941C5C002329F4B395B23011F40B
:1052800002E016C20A2F0077003199F508810F77E6
:105290000883098100680983088119810E941C5CC8
:1052A000002329F4B395B23011F402E001C2088161
:1052B00000680883098100680983088119810E94B8
:1052C0001C5C002329F4B395B23011F402E0F0C164
:1052D00008810068088309810F7709830881198193
:1052E0000E941C5C002329F4B395B23011F402E053
:1052F000DFC1009102020878002309F0D3C18A2F90
:105300008F5000910202801779F4A8838983088165
:1053100019810E941C5C002309F0C4C1B395B2300E
:1053200009F0C0C102E0C4C18A2F8151009102027C
:10533000801709F0B7C1A8838983088119810E9469
:105340001C5C002309F0AEC1B395B23009F0AAC1CC
:1053500002E0AEC1662401C0639408E0601608F064
:10536000A1C17724F301E15EFE4F80818A0F082FEF
:105370000878002389F700E711E090E0FC01EF597D
:10538000FE4F208130E02F703070020F131FF801A4
:105390000491023009F3A8838983088119810E944E
:1053A0001C5C0023C9F6B395B230B1F602E080C1AF
:1053B000662401C0639404E0601608F073C177248A
:1053C000F301E95DFE4F90818A2F442402C04424FA
:1053D0004394442079F7890F082F0878002351F768
:1053E00000E711E0282F30E0F901EF59FE4F20814E
:1053F00030E02F703070020F131FF801049100503D
:1054000029F00A9581F00A9511F3E3CFA8838983E7
:10541000088119810E941C5C0023D9F6B395B23033
:10542000C1F602E045C1A8838983442443940881DE
:1054300019810E941C5C002361F6B395B23049F6D5
:1054400002E036C1662401C0639404E0601608F0EF
:1054500029C17724F301E55DFE4F90818A2F442412
:1054600002C044244394442079F7890F082F087818
:10547000002351F700E711E0282F30E0F901EF5940
:10548000FE4F208130E02F703070020F131FF801A3
:105490000491005029F00A9581F00A9511F3E3CFA9
:1054A000A8838983088119810E941C5C0023D9F696
:1054B000B395B230C1F602E0FBC0A88389834424CF
:1054C0004394088119810E941C5C002361F6B39506
:1054D000B23049F602E0ECC0662401C0639408E0F3
:1054E000601608F0DFC07724F301E95EFE4F90817B
:1054F0008A2F442402C044244394442079F7890F1E
:10550000082F0878002351F700E711E0282F30E03A
:10551000F901EF59FE4F208130E02F703070020FFB
:10552000131FF8010491005029F00A9581F00A95A3
:1055300011F3E3CFA8838983088119810E941C5C41
:105540000023D9F6B395B230C1F602E0B1C0A8830A
:10555000898344244394088119810E941C5C0023A0
:1055600061F6B395B23049F602E0A2C0662401C0EC
:10557000639408E0601638F57724F301E95EFE4F86
:1055800080818A0F082F0878002391F700E711E047
:1055900090E0FC01EF59FE4F208130E02F70307019
:1055A000020F131FF8010491023011F3A8838983BD
:1055B000088119810E941C5C0023D1F6B395B2309A
:1055C000B9F602E075C0A43709F06CC00091D501AE
:1055D0000C3009F067C00091D601002311F401E0FE
:1055E00001C000E0002331F10091D701002311F444
:1055F00001E001C000E00023E9F00091D8010A3089
:10560000C9F414E701E0A1D90023A1F415E701E0F2
:105610009CD9002379F404E7088306E7098308810D
:1056200019810E941C5C002329F4B395B23011F457
:1056300002E03EC00091D401002311F401E001C05A
:1056400000E0002379F10091D301002311F401E07F
:1056500001C000E0002331F10091D201002311F4D8
:1056600001E001C000E00023E9F00091D1010A301F
:10567000C9F414E701E069D90023A1F413E701E0BC
:1056800064D9002379F404E7088302E709830881D9
:1056900019810E941C5C002329F4B395B23011F4E7
:1056A00002E006C0A39400E1A01608F4C9C90B2FBC
:1056B000229689919991A991B9914990699079908F
:1056C00089909990A990B99008959A938A9380E0CF
:1056D0000A95A9F00A9531F590E0FC01EF51FE4FD3
:1056E0000081102F18781123D1F41091F101E8D81E
:1056F0000023A9F001E017C08395803198F490E071
:10570000FC01EF50FE4F0081102F18781123A1F7F4
:105710001091E101D5D8002379F301E004C083950D
:105720008031D0F200E08991999108954A92BA931C
:10573000AA939A938A932297802F00E711E090E032
:10574000FC01EF59FE4F208130E02F703070020FC6
:10575000131FF80104910A9519F00A9529F148C020
:1057600001E008839E01082F0E94D02208810023B7
:1057700011F400E084C001E009839E012F5F3F4FD8
:10578000082F0E949C2109810023A1F5E5E7F3E0A1
:1057900090E0DC01AF59BE4F0C9110E00F7010701B
:1057A000E00FF11F04916BC001E008839E01082FF8
:1057B0000E949C210881002311F400E060C001E0F8
:1057C00009839E012F5F3F4F082F0E94D02209813D
:1057D000002381F4E5E7F3E090E0DC01AF59BE4F30
:1057E0000C9110E00F701070E00FF11F049147C092
:1057F00000E045C090E005E713E0282F30E0F90114
:10580000EF59FE4F208130E02F703070020F131FD0
:10581000F801A4919A0FB92F8E010E94DC1FA02FCE
:105820009A1B892F8E010F5F1F4F0E94DC1FA02F34
:105830008E010E94DC1F002339F09A0F492EA02F01
:10584000913044F400E01BC0882312F400E017C03C
:10585000082F15C08E010F5F1F4F0E94DC1F002311
:1058600029F09A1B9B173CF00B2F09C0B4150CF0C4
:10587000B42D0B2F04C081300CF480E0082F229649
:1058800089919991A991B9914990089500E008C032
:1058900010E0202F30E0F901EF59FE4F10830395FF
:1058A000003830F4102F1878112391F31FEFF1CF47
:1058B000089501E0009301020FEF0093020200E05F
:1058C0000093030200E00093040202E0009305024B
:1058D00000E016C0102F1878112389F4E0EFF0E0F3
:1058E00010E0E00FF11F2491E0E7F0E030E0E20F7C
:1058F000F31F249110E0F801EF59FE4F2083039528
:10590000003840F3089506E012E0ECE4F2E0008392
:10591000118300E05FC0EFE2F1E04081518110E0CF
:1059200027E030E0309F302D219F300D209F202D2B
:10593000310DF901EA5FFD4F4083518340E010E0F3
:1059400027E030E0309F302D219F300D209F202D0B
:10595000310DF901EA5FFD4F428340E010E027E09E
:1059600030E0309F302D219F300D209F202D310DB4
:10597000F901EA5FFD4F438340E010E027E030E0AB
:10598000309F302D219F300D209F202D310DF901AA
:10599000EA5FFD4F448340E010E027E030E0309FB5
:1059A000302D219F300D209F202D310DF901EA5F10
:1059B000FD4F45834FEF10E027E030E0309F302D62
:1059C000219F300D209F202D310DF901EA5FFD4F01
:1059D000468303950A3008F49ECF00E00EC01FEF07
:1059E000202F30E0F901EF50FE4F1083202F30E0E0
:1059F000F901EF51FE4F10830395003180F320E051
:105A0000422F00E001C00395063090F560E012C01F
:105A1000E8E8F3E0002E1124E00DF11D3491131796
:105A200041F4203129F130E0F901EF50FE4F60835D
:105A300023956395603838F7162F18781123C9F726
:105A400070E0FB01EF59FE4F10811F70E2E8F3E0B8
:105A5000002E1124E00DF11D34911317C9F64031C9
:105A600039F050E0FA01EF51FE4F60834395E1CFEA
:105A700008955A924A92BA93AA939A938A93552474
:105A8000852D952DA52DB52D452C009101020130B8
:105A900021F402E01ADE002341F4009101020230F9
:105AA00031F401E012DE002311F000E051C020E0EB
:105AB00004C00C3009F4839523952038C0F5022FDB
:105AC00008780023C9F730E0F901EF59FE4F008153
:105AD000002311F401E001C000E0002369F730E089
